S01800004763634170706C69636174696F6E36372E737265631E
S11300000C942A000C9434000C9434000C943400A6
S11300100C9434000C9434000C9434000C9434008C
S11300200C9434000C9434000C9434000C9434007C
S11300300C9434000C9434000C9434000C9434006C
S11300400C9434000C9434000C9434000C9434005C
S11300500C94340011241FBECFE5D8E0DEBFCDBF21
S11300600E9436000C9454000C9400008FEF87BB60
S11300708BBB61E052E044E038E020E190E280E4B0
S113008070E818BAC89B68BBC99B58BBCA9B48BBDD
S1130090CB9B38BBCC9B28BBCD9B98BBCE9B88BB52
S10F00A0CF99EFCF78BBEDCFF894FFCFE1
S9030000FC
